:03000000020200F9
:03000B000202836B
:03001B00020325B8
:10020000758911758CFC758A6579017A027CFE7D91
:10021000328C8D8D8B7F28E5302FF87400F6DFF758
:100220007F14E5302F2FF874FEF6E5302F2F2401D0
:10023000F87432F6DFECD28CD2A9D2ABD2AF75987B
:1002400050D2CDD2CC75CBFF75CAB8D2CAC29830C5
:1002500098FDAE99BE61F6C2983098FDAB99C298F0
:100260003098FDAE99C2983098FDAF99EB943CFB65
:10027000E5302B2BF8EEF6E5302B2B2401F8EFF6CA
:1002800002024D758CFC758A65BA0105D2A0020385
:1002900022BA0205D2A1020322BA0305D2A20203A6
:1002A00022BA0405D2A3020322BA0505D2A402038E
:1002B00022BA0605D2A5020322BA0705D2A6020376
:1002C00022BA0805D2A7020322BA0905D2B4020352
:1002D00022BA0A05D2B5020322BA0B05D2B602032E
:1002E00022BA0C05D2B7020322BA0D05D29002033E
:1002F00022BA0E04D291802ABA0F04D2928023BA75
:100300001004D293801CBA1104D2948015BA12043E
:10031000D295800EBA1304D2968007BA1404D297ED
:100320008000D28E32FCE8FDB90105C2A00203B6FE
:10033000B90205C2A10203B6B90304C2A28077B90B
:100340000404C2A38070B90504C2A48069B906047C
:10035000C2A58062B90704C2A6805BB90804C2A71F
:100360008054B90904C2B4804DB90A04C2B58046AC
:10037000B90B04C2B6803FB90C04C2B78038B90DBE
:1003800004C2908031B90E04C291802AB90F04C210
:10039000928023B91004C293801CB91104C29480C6
:1003A00015B91204C295800EB91304C2968007B91C
:1003B0001404C2978000C28EEAF90ABA15027A01C3
:1003C000E5302A2AF8E6F58DE5302A2A2401F8E6F8
:0603D000F58BEDF8EC32A4
:00000001FF
